:020000040800F2
:10C0000000C00020F1FF000821F800082DF800080A
:10C0100039F8000845F8000851F800080000000051
:10C020000000000000000000000000005DF80008B3
:10C0300069F800080000000075F8000881F80008A1
:10C04000450001084500010845000108F1FB000812
:10C050004500010845000108F5F8000829F9000825
:10C060005DF90008A1F90008D5F9000845000108AC
:10C0700045000108450001084500010829FC0008A9
:10C080004500010845000108450001084500010878
:10C0900045000108450001084500010809FA0008AB
:10C0A00045000108450001084500010841FB000862
:10C0B000A9FB0008C1FB0008D9FB0008B9F800087B
:10C0C000CDF800084500010845000108E1F8000826
:10C0D0004500010891F80008A5F80008450001088E
:10C0E0008DFA0008450001084500010845000108D7
:10C0F0004500010845000108450001084500010808
:10C1000045000108450001084500010845000108F7
:10C1100045000108450001084500010845000108E7
:10C1200045000108450001084500010845000108D7
:10C1300045000108450001084500010845000108C7
:10C1400045000108450001084500010845000108B7
:10C1500045000108450001084500010845000108A7
:10C160004500010845000108450001084500010897
:10C170004500010845000108450001084500010887
:08C1800045000108450001081B
:10C1880010F8012B11F8013B012A28BF9A42F7D079
:10C19800D01A704781F0004102E000BF83F00043ED
:10C1A80030B54FEA41044FEA430594EA050F08BF4A
:10C1B80090EA020F1FBF54EA000C55EA020C7FEA0E
:10C1C800645C7FEA655C00F0E2804FEA5454D4EB8B
:10C1D8005555B8BF6D420CDD2C4480EA020281EA55
:10C1E800030382EA000083EA010180EA020281EA8D
:10C1F8000303362D88BF30BD11F0004F4FEA0131DF
:10C208004FF4801C4CEA113102D0404261EB4101ED
:10C2180013F0004F4FEA03334CEA133302D0524273
:10C2280063EB430394EA050F00F0A780A4F101042F
:10C23800D5F1200E0DDB02FA0EFC22FA05F2801869
:10C2480041F1000103FA0EF2801843FA05F359414F
:10C258000EE0A5F120050EF1200E012A03FA0EFCCE
:10C2680028BF4CF0020C43FA05F3C01851EBE371F8
:10C2780001F0004507D54FF0000EDCF1000C7EEB15
:10C2880000006EEB0101B1F5801F1BD3B1F5001F53
:10C298000CD349085FEA30004FEA3C0C04F1010472
:10C2A8004FEA445212F5800F80F09A80BCF1004F9B
:10C2B80008BF5FEA500C50F1000041EB045141EA1D
:10C2C800050130BD5FEA4C0C404141EB010111F41E
:10C2D800801FA4F10104E9D191F0000F04BF0146C9
:10C2E8000020B1FA81F308BF2033A3F10B03B3F1A7
:10C2F80020020CDA0C3208DD02F1140CC2F10C0237
:10C3080001FA0CF021FA02F10CE002F11402D8BF94
:10C31800C2F1200C01FA02F120FA0CFCDCBF41EA60
:10C328000C019040E41AA2BF01EB0451294330BD2F
:10C338006FEA04041F3C1CDA0C340EDC04F114040C
:10C34800C4F1200220FA04F001FA02F340EA0300E3
:10C3580021FA04F345EA030130BDC4F10C04C4F129
:10C36800200220FA02F001FA04F340EA0300294609
:10C3780030BD21FA04F0294630BD94F0000F83F453
:10C38800801306BF81F480110134013D4EE77FEA36
:10C39800645C18BF7FEA655C29D094EA050F08BF82
:10C3A80090EA020F05D054EA000C04BF1946104663
:10C3B80030BD91EA030F1EBF0021002030BD5FEAA7
:10C3C800545C05D14000494128BF41F0004130BDCF
:10C3D80014F580043CBF01F5801130BD01F0004523
:10C3E80045F0FE4141F470014FF0000030BD7FEA96
:10C3F800645C1ABF194610467FEA655C1CBF0B4691
:10C40800024650EA013406BF52EA033591EA030FA7
:10C4180041F4002130BD00BF90F0000F04BF00219F
:10C42800704730B54FF4806404F132044FF00005D2
:10C438004FF0000150E700BF90F0000F04BF00214B
:10C44800704730B54FF4806404F1320410F00045B1
:10C4580048BF40424FF000013EE700BF42004FEAAC
:10C46800E2014FEA31014FEA02701FBF12F07F4329
:10C4780093F07F4F81F06051704792F0000F14BF26
:10C4880093F07F4F704730B54FF4607401F000456A
:10C4980021F0004120E700BF50EA010208BF7047C1
:10C4A80030B54FF000050AE050EA010208BF7047B6
:10C4B80030B511F0004502D5404261EB41014FF41F
:10C4C800806404F132045FEA915C3FF4DCAE4FF023
:10C4D80003025FEADC0C18BF03325FEADC0C18BF0A
:10C4E800033202EBDC02C2F1200300FA03FC20FA5B
:10C4F80002F001FA03FE40EA0E0021FA02F11444A8
:10C50800C1E600BF70B54FF0FF0C4CF4E06C1CEABC
:10C5180011541DBF1CEA135594EA0C0F95EA0C0F31
:10C5280000F0DEF82C4481EA030621EA4C5123EAA4
:10C538004C5350EA013518BF52EA033541F48011D3
:10C5480043F4801338D0A0FB02CE4FF00005E1FB86
:10C5580002E506F00042E0FB03E54FF00006E1FBD0
:10C5680003569CF0000F18BF4EF0010EA4F1FF0413
:10C57800B6F5007F64F5407404D25FEA4E0E6D4153
:10C5880046EB060642EAC62141EA55514FEAC52064
:10C5980040EA5E504FEACE2EB4F1FD0C88BFBCF5E0
:10C5A800E06F1ED8BEF1004F08BF5FEA500E50F191
:10C5B800000041EB045170BD06F0004646EA010157
:10C5C80040EA020081EA0301B4EB5C04C2BFD4EB89
:10C5D8000C0541EA045170BD41F480114FF0000E82
:10C5E800013C00F3AB8014F1360FDEBF002001F0F0
:10C5F800004170BDC4F10004203C35DA0C341BDC6A
:10C6080004F11404C4F1200500FA05F320FA04F03B
:10C6180001FA05F240EA020001F0004221F000416F
:10C6280010EBD37021FA04F642EB06015EEA430EE2
:10C6380008BF20EAD37070BDC4F10C04C4F1200512
:10C6480000FA04F320FA05F001FA04F240EA0200C5
:10C6580001F0004110EBD37041F100015EEA430E96
:10C6680008BF20EAD37070BDC4F1200500FA05F2B6
:10C678004EEA020E20FA04F301FA05F243EA020335
:10C6880021FA04F001F0004121FA04F220EA020044
:10C6980000EBD3705EEA430E08BF20EAD37070BD8A
:10C6A80094F0000F0FD101F00046400041EB01016A
:10C6B80011F4801F08BF013CF7D041EA060195F04C
:10C6C800000F18BF704703F00046520043EB030306
:10C6D80013F4801F08BF013DF7D043EA06037047F3
:10C6E80094EA0C0F0CEA135518BF95EA0C0F0CD0FE
:10C6F80050EA410618BF52EA4306D1D181EA030144
:10C7080001F000414FF0000070BD50EA410606BF3D
:10C718001046194652EA430619D094EA0C0F02D182
:10C7280050EA013613D195EA0C0F05D152EA0336C7
:10C738001CBF104619460AD181EA030101F00041E5
:10C7480041F0FE4141F470014FF0000070BD41F02E
:10C75800FE4141F4780170BD70B54FF0FF0C4CF408
:10C76800E06C1CEA11541DBF1CEA135594EA0C0F27
:10C7780095EA0C0F00F0A7F8A4EB050481EA030E74
:10C7880052EA03354FEA013100F088804FEA03335B
:10C798004FF0805545EA131343EA12634FEA022229
:10C7A80045EA111545EA10654FEA00260EF00041EA
:10C7B8009D4208BF964244F1FD0404F5407402D23C
:10C7C8005B084FEA3202B61A65EB03055B084FEACD
:10C7D80032024FF480104FF4002CB6EB020E75EBCA
:10C7E800030E22BFB61A754640EA0C005B084FEAF2
:10C7F8003202B6EB020E75EB030E22BFB61A75466F
:10C8080040EA5C005B084FEA3202B6EB020E75EBB9
:10C81800030E22BFB61A754640EA9C005B084FEA31
:10C828003202B6EB020E75EB030E22BFB61A75463E
:10C8380040EADC0055EA060E18D04FEA051545EA2D
:10C8480016754FEA06164FEAC30343EA52734FEAD6
:10C85800C2025FEA1C1CC0D111F4801F0BD141EA4F
:10C8680000014FF000004FF0004CB6E711F4801FB4
:10C8780004BF01430020B4F1FD0C88BFBCF5E06F94
:10C888003FF6AFAEB5EB030C04BFB6EB020C5FEAA4
:10C89800500C50F1000041EB045170BD0EF0004EF9
:10C8A8004EEA113114EB5C04C2BFD4EB0C0541EA2B
:10C8B800045170BD41F480114FF0000E013C90E628
:10C8C80045EA060E8DE60CEA135594EA0C0F08BFEC
:10C8D80095EA0C0F3FF43BAF94EA0C0F0AD150EAEB
:10C8E80001347FF434AF95EA0C0F7FF425AF10467E
:10C8F80019462CE795EA0C0F06D152EA03353FF4A6
:10C90800FDAE1046194622E750EA410618BF52EA22
:10C9180043067FF4C5AE50EA41047FF40DAF52EAF6
:10C9280043057FF4EBAE12E74FF0FF3C06E000BF93
:10C938004FF0010C02E000BF4FF0010C4DF804CDA0
:10C948004FEA410C7FEA6C5C4FEA430C18BF7FEA60
:10C958006C5C1BD001B050EA410C0CBF52EA430C8E
:10C9680091EA030F02BF90EA020F0020704710F10E
:10C97800000F91EA030F58BF994208BF90422CBF9D
:10C98800D8176FEAE37040F0010070474FEA410C96
:10C998007FEA6C5C02D150EA013C07D14FEA430CB4
:10C9A8007FEA6C5CD6D152EA033CD3D05DF8040B25
:10C9B800704700BF8446104662468C461946634657
:10C9C80000E000BF01B5FFF7B7FF002848BF10F12E
:10C9D800000F01BD4DF808EDFFF7F4FF0CBF012073
:10C9E80000205DF808FB00BF4DF808EDFFF7EAFFEF
:10C9F80034BF012000205DF808FB00BF4DF808EDAA
:10CA0800FFF7E0FF94BF012000205DF808FB00BF9E
:10CA18004DF808EDFFF7CEFF94BF012000205DF828
:10CA280008FB00BF4DF808EDFFF7C4FF34BF012035
:10CA380000205DF808FB00BF4FEA410212F5001222
:10CA480015D211D56FF47873B3EB625212D94FEA4D
:10CA5800C12343F0004343EA505311F0004F23FA37
:10CA680002F018BF404270474FF00000704750EA8C
:10CA7800013005D111F0004008BF6FF00040704749
:10CA88004FF00000704700BF80B584B000AF7860F9
:10CA98000B4B1B68FB600A4B1A687B681A44084BEF
:10CAA8001A60074B1A68074B9A4204D9082008F005
:10CAB800D5FD0FF073FAFB6818461037BD4680BDE8
:10CAC8009400002000B8002080B584B000AF102288
:10CAD80010231A4310231A4310231A4310231A430E
:10CAE800102313431846012109F0F4FC01233B727B
:10CAF8000023BB7202237B720223FB720023FB60BC
:10CB080010E00B4BFA6833F812307B60094BFA6877
:10CB180053F822203B1D1046194609F0FDFAFB6820
:10CB28000133FB60FB68052BEBDD1037BD4680BD8C
:10CB3800E80D02089800002080B483B000AF0246D8
:10CB48000B46FA71BB71BB79012B09D1FA790B4BF2
:10CB580053F82230F9790A4A32F811201A8308E08A
:10CB6800FA79064B53F82230F979054A32F8112040
:10CB78005A830C37BD465DF8047B70479800002047
:10CB8800E80D020880B582B000AF78603960786837
:10CB9800396801F017FC034618460837BD4680BDC2
:10CBA80080B582B000AF78607B68064A1A600023BF
:10CBB800002B02D0786800F0F1FA7B681846083735
:10CBC800BD4680BD180E020880B582B000AF7860FF
:10CBD8007868FFF7E5FF786800F0E0FA7B681846A8
:10CBE8000837BD4680BD00BF80B500AFFFF76CFFBA
:10CBF80000200021FFF7A0FF0248034900F04AFB8C
:10CC080080BD00BF84E2010821CC000880B400AFD9
:10CC1800BD465DF8047B704780B582B000AF786090
:10CC280078681249FFF7AEFF0346002B0CBF0023BC
:10CC38000123DBB2002B03D000200121FFF77CFF8A
:10CC480078680B49FFF79EFF0346002B0CBF0023B3
:10CC58000123DBB2002B03D000200021FFF76CFF7B
:10CC6800002318460837BD4680BD00BF8CE2010886
:10CC780090E2010880B584B002AF786039607B68C3
:10CC8800012B15D13A684FF6FF739A4210D1002351
:10CC98000093094800210022002301F0F5F8064816
:10CCA8000649074A0FF04AF90648002100F0B0FA91
:10CCB8000837BD4680BD00BFD0010020A9CB0008C1
:10CCC800EC010020D801002080B500AF01204FF60C
:10CCD800FF71FFF7CFFF80BD80B400AFBFF34F8F68
:10CCE800054A054BDB6803F4E061044B0B43D36052
:10CCF800BFF34F8FFEE700BF00ED00E00400FA0528
:10CD080080B500AF194B1B88032B06D8174B04229C
:10CD18001A800120042109F06BFE4FF000604FF4E7
:10CD2800404108F02FFE124B01221A7006F06CFFEA
:10CD380006F0B6FF4FF48050012109F0CBFB6FF0ED
:10CD48007F4007F0ABF9E72007F080FA094B012292
:10CD58001A7007F00FF807F06DFF08F0D1F9064BCD
:10CD680001221A70054B01221A7080BD8201002031
:10CD780080010020440E00203C0E0020400E0020C0
:10CD880080B500AF464B1B88042B06D8444B0522C0
:10CD98001A800120052109F02BFE424B1B78DBB2DB
:10CDA800002B0CBF00230123DBB2002B02D03E482E
:10CDB80002F0FCF93B4B1B78DBB2002B0CBF0023C5
:10CDC8000123DBB2002B0CD0354B1B88052B06D872
:10CDD800334B06221A800120062109F009FE02F0D1
:10CDE80023FA304B1B78DBB2002B12D02F4B1B7869
:10CDF800DBB2002B0DD12E4B1B78DBB2002B08D0F9
:10CE08002C4B1B78DBB2002B03D12B4B1B78002B50
:10CE180001D0012300E00023002B40D0274B1B78D2
:10CE2800DBB2002B06D1264B1B78DBB2002B01D1DD
:10CE3800012300E00023002B31D01F4B1B78012B6E
:10CE480012D0204B002B0FD0154B1B88062B06D871
:10CE5800134B07221A800120072109F0C9FDFFF7AB
:10CE6800C3FE154B01221A70174B002B17D00C4B21
:10CE78001B88072B06D80A4B08221A800120082194
:10CE880009F0B6FDFFF7C2FE054B1B88082B06D834
:10CE9800034B09221A800120092109F0A9FD89E71D
:10CEA800820100203C0E0020CDD800083E0E002054
:10CEB800400E0020420E0020E8010020430E002012
:10CEC8001C170020F1CB000815CC000880B500AF76
:10CED800734B1B68002B0CBF00230123DBB2002B14
:10CEE80004D06F4B1B685A1E6D4B1A606D4B1B7834
:10CEF800002B0ED06C4B1B78DBB2002B04D06B4B95
:10CF0800002B01D0012300E00023002B01D000F00A
:10CF18000FFD674B1B68002B0CBF00230123DBB2FE
:10CF2800002B05D0624B1B685A1E614B1A6052E0F9
:10CF3800604B1B78DBB2002B09D15F4B1B78DBB24F
:10CF4800002B04D15D4B1B78DBB2002B01D00123F1
:10CF580000E00023002B3ED1594B1B78DBB2002B9D
:10CF68000CBF00230123DBB2002B06D0E72007F01B
:10CF780077FA4F4B14221A602DE0524B1B78DBB224
:10CF8800002B06D0504B1B78DBB2002B01D00123BD
:10CF980000E00023002B0AD04FF6FF7007F07EF860
:10CFA800E72007F053F9464B01221A7013E0E720F7
:10CFB80007F0D4F9454B1B78DBB2002B0CBF0023DC
:10CFC8000123DBB2002B03D0394B32221A6002E076
:10CFD800374B64221A603B4B1B78DBB2002B04D022
:10CFE8003B4B1B78DBB2002B01D0012300E0002370
:10CFF800002B54D1304B1B78DBB2002B0CBF002325
:10D008000123DBB2002B13D0324B1A6847F22F539F
:10D018009A4294BF00230123DBB2002B02D0FFF712
:10D028005BFE3CE02B4B1B685A1C2A4B1A6036E00F
:10D03800204B1B78DBB2002B0AD1002007F050FBF5
:10D0480003461A4640F6B7339A4201D9012300E055
:10D058000023002B0FD0002007F054FB1C4B1B783B
:10D06800DBB2002B14BF00230123DBB2002B16D048
:10D0780001F00CFD13E0002007F032FB03461A46CE
:10D0880041F657339A4294BF00230123DBB2002BA9
:10D0980005D0002007F036FB0F4B01221A7080BD27
:10D0A80024170020940100202C0B002039D90008F7
:10D0B80020170020170E0020430E0020450E0020E8
:10D0C800440E00203C0E0020420E0020410E00209D
:10D0D8003E0E0020E4010020160E002080B584B02A
:10D0E80002AF786039607B68012B11D13A684FF63E
:10D0F800FF739A420CD100230093074800210022B5
:10D10800002300F0C1FE04480449054A0EF016FF4A
:10D118000837BD4680BD00BFDC010020A9CB000850
:10D12800EC01002080B500AF01204FF6FF71FFF73A
:10D13800D5FF80BD80B584B000AF786039607B686A
:10D14800FB6007E0FB681B68BB60BB689847FB682F
:10D158000433FB60FA683B689A42F3D31037BD4644
:10D1680080BD00BF80B500AF06480749FFF7E2FF62
:10D1780006480749FFF7DEFF06480749FFF7DAFFC9
:10D1880080BD00BF8C1102088C1102088C110208A6
:10D19800B8110208B8110208B811020880B582B0A7
:10D1A80000AF786078680EF01FFF0837BD4680BD75
:10D1B80080B582B000AF7860072008F04FFAFEE72C
:10D1C80080B483B000AF786039604FF0FF33184601
:10D1D8000C37BD465DF8047B704700BF80B400AFD4
:10D1E80001231846BD465DF8047B704780B500AF43
:10D1F8000C2008F033FAFEE780B483B000AF786003
:10D208007B6818460C37BD465DF8047B704700BF45
:10D2180080B483B000AF78600B46FB70FB78012BBD
:10D228000AD0022B12D0002B1AD1114B00221A70EF
:10D23800104B01221A7013E00D4B01221A700D4B8E
:10D2480000221A700C4B01221A7009E0084B0222C6
:10D258001A70084B00221A70074B01221A7000BF7F
:10D268007B6818460C37BD465DF8047B704700BFE5
:10D278006C0D0020400E00203E0E002080B400AF50
:10D28800034B1B781846BD465DF8047B704700BF0A
:10D298006C0D002080B584B000AF78603960002341
:10D2A800FB603B68002B71D07B68002B6ED0394B3C
:10D2B8001B68042B00D169E00023FB6021E0364A9B
:10D2C800FB68582101FB03F313441A683B689A4230
:10D2D80010D1FB68582202FB03F22F4B134404338E
:10D2E800184679680C220FF043F80346002B01D149
:10D2F800012300E00023002B00D047E0FB68013346
:10D30800FB60244B1B68FA689A42D8DB214B1B68E8
:10D31800214A582101FB03F313443A681A601D4B54
:10D328001B68582202FB03F303F110021A4B134443
:10D338001846002140220EF0A1FE164B1B68582209
:10D3480002FB03F2144B13440433184600210C2249
:10D358000EF094FE0F4B1B68582202FB03F20E4B93
:10D3680013440433184679680C220EF063FE094B07
:10D378001B68094A582101FB03F313445033002268
:10D388001A71044B1B685A1C024B1A601037BD46B1
:10D3980080BD00BF3C0B0020080C002080B586B083
:10D3A80002AFF860B9607A60FB70FB78002B01D09F
:10D3B800452300E0652300930448F968BA687B6850
:10D3C8000AF0FEFB1037BD4680BD00BFF801002003
:10D3D80080B582B000AF0D4B1B68184603F0F4FC13
:10D3E8000346012B14BF00230123DBB2FB71FB7939
:10D3F800002B064B1B68B3F1FF3F01D10123FB71E2
:10D40800FB7918460837BD4680BD00BFB000002034
:10D4180080B500AF0D4B1B78DBB2002B09D000F0B4
:10D4280047FA034683F00103DBB2002B01D0012346
:10D4380000E00023002B08D0054B00221A70054B92
:10D4480000221A70014B00221A7080BD410E002084
:10D45800430E0020420E002080B584B000AF7860F3
:10D468003960134B1B78DBB2002B09D1114B1B78A9
:10D47800DBB2002B04D1FFF7ABFF0346002B01D032
:10D48800012300E00023002B02D04FF0FF330AE015
:10D49800094B1B68184679683A68002305F0F6FAC4
:10D4A8000346FB60FB6818461037BD4680BD00BFC9
:10D4B8003D0E00203E0E0020B000002090B58DB03B
:10D4C80002AF78603960494B1B78DBB2002B09D179
:10D4D800474B1B78DBB2002B04D1FFF779FF0346DB
:10D4E800002B01D0012300E00023002B02D04FF0D5
:10D4F800FF3376E000237B620023BB6107F10C0356
:10D50800FB6100233B6207E0FB695A1CFA610022B9
:10D518001A703B6A01333B623B6A042BF4D3354BE8
:10D528001B681A462023B2FBF3F2930007F1280187
:10D538000B4453F81C0C2F4B1B682021B3FBF1F450
:10D5480001FB04F15B1A012101FA03F340EA03012C
:10D55800930007F12802134443F81C1C00233B6185
:10D5680041F288337B61234B1B685A1C07F10C037B
:10D5780007F110010091104619460022002305F01A
:10D58800A7F80346BB61BB69002B24DD194B1B6858
:10D598001A462023B2FBF3F39B0007F128010B4442
:10D5A80053F81C1C134B1B682022B3FBF2F002FB40
:10D5B80000F29B1A41FA03F303F00103002B0FD08A
:10D5C8000C4B1B68184679683A68002305F08CF9FB
:10D5D80003467B6204E0BB69002B01DABB6900E00B
:10D5E8007B6A18462C37BD4690BD00BF3D0E002013
:10D5F8003E0E0020B000002080B500AF054B012290
:10D608001A70054B00221A604FF4C02007F0C6FBC1
:10D6180080BD00BF430E0020E401002080B500AFAC
:10D62800044B00221A70044B00221A6007F062FCB7
:10D6380080BD00BF430E0020E401002080B582B009
:10D6480000AF78603960064B00221A607868396844
:10D6580007F0E2FB034618460837BD4680BD00BF09
:10D66800E401002080B400AF034B1B681846BD4698
:10D678005DF8047B704700BF3C0B002080B582B08A
:10D6880000AF786039603B68582202FB03F2054B13
:10D6980013440433786819460C220EF0CBFC083783
:10D6A800BD4680BD080C002080B400AF034B1B684A
:10D6B8001846BD465DF8047B704700BF380B002054
:10D6C80080B582B000AF786039603A6813469B0035
:10D6D80013449B00054A13440433786819460C2206
:10D6E8000EF0A8FC0837BD4680BD00BF400B0020E7
:10D6F80080B582B000AF7860786800F065FA0346BC
:10D70800042B05D0092B05D0012B05D1012304E0FA
:10D71800042302E0092300E0022318460837BD4627
:10D7280080BD00BF80B5ADF57A7D02AF334809F002
:10D73800F8FE034683F00103DBB2002B5AD03B1DF1
:10D748002F4A1A603B1D2F4A5A603B1D2E4A9A6089
:10D758003B1D2E4ADA603B1D2D4A1A613B1D2D4A9E
:10D768005A613B1D2C4A9A613B1D2C4ADA613B1DCC
:10D778002B4A1A6207F128032A4A1A6007F128037C
:10D78800294A5A6007F12803284A9A6007F12803B2
:10D79800274ADA6007F12803264A1A6107F12803A5
:10D7A800254A5A6107F12803244A9A6107F1280398
:10D7B800234ADA6107F12803224A1A6207F14C0367
:10D7C800C7F8DC3307F5BA73C7F8D83307F14C0349
:10D7D800184607F0E5FB07F5BA73184607F0EEFBA5
:10D7E80007F576723B1D07F1280100910348164999
:10D7F80009F09EFE07F57877BD4680BDF801002048
:10D8080061D40008C5D4000801D6000825D6000850
:10D818001550010845D60008A5D9000809DE0008FA
:10D82800FDE400086DD6000885D60008ADDC0008C8
:10D83800B1D60008C9D60008F9D6000841DC0008AE
:10D84800E14F010801500108107AFF1F80B586B02A
:10D8580002AFFFF767FF134809F066FE11480AF0A8
:10D868008AFAF86000F02EF80E480AF0F3F907F18A
:10D878000803184603F0AAFD3B7A7A7A11463A461D
:10D88800009110460821084A0EF030FD3B46074833
:10D8980019463C220123FFF781FDFB681846103723
:10D8A800BD4680BDF801002098E20108A0E2010809
:10D8B80080B500AF02480AF0B8FD0346184680BD9F
:10D8C800F801002080B58CB002AF0220022111229D
:10D8D80004F0E2FD03467B627B6A002B22DB07F142
:10D8E80010031846114909F073FF02233B801623E1
:10D8F800BB703323FB70E0233B7100237B71012352
:10D90800BB71BB23FB7107F110033A46009210224A
:10D918000192786A19461322002305F0CFF8786A35
:10D9280004F0FCFD2837BD4680BD00BF107AFF1FFC
:10D9380080B500AF154B1B68002B0CBF00230123DB
:10D94800DBB2002B05D0114B1B685A1E0F4B1A6017
:10D958001BE00F4B1A680F4B53F82230184606F09D
:10D96800E3FBE72006F072FC084B64221A60084BC0
:10D978001B685A1C064B1A60054B1A68064B1B6835
:10D988009A4202DB024B00221A6080BD300B002055
:10D99800340B0020F40D0208B400002080B582B0DA
:10D9A80000AF0346FB71FB79002B05D006F002FCA3
:10D9B800054B01221A7004E006F008FC024B002215
:10D9C8001A700837BD4680BD2C0B002080B588B082
:10D9D80000AF0023FB6102200121062204F05CFD58
:10D9E8000346BB61BB69002B02DA4FF0FF3321E02D
:10D9F80002233B800023BB703523FB7008233B7157
:10DA080008237B710823BB710823FB714FF4FA507C
:10DA180001F0B8FB78613B46B8691946102204F05A
:10DA28000BFEF861786901F0ADFBB86904F076FD8A
:10DA38003861FB6918462037BD4680BD90B5ABB04C
:10DA480000AF00F0A7F802200121062204F024FD0F
:10DA580003461A464B4B1A604A4B1B68002B02DAE6
:10DA68004FF0FF3389E0484B02221A80464B1622BA
:10DA78009A70454B3322DA703B1D184607F04AFA74
:10DA88000023C7F898303B79002B02D0012B1AD01D
:10DA980003E0BB68C7F898303CE03C4B07F18804CA
:10DAA8000FCB84E80F0007F1880318460EF058FCE6
:10DAB800034601333A1D111D07F188020846114635
:10DAC8001A460EF0B7FA0A23C7F8A43010E03B1D37
:10DAD800043318467E210EF062FC03469AB23B1DC1
:10DAE800191D07F19803084611461A4604F046FD29
:10DAF800D7F89830002B0AD1D7F8A430013BC7F8E3
:10DB0800A430D7F8A430002B01DD012300E0002366
:10DB1800002BDCD1D7F89830002B02D11C4BC7F86A
:10DB28009830D7F898301B0EDAB2174B1A71D7F81D
:10DB380098301B0CDAB2144B5A71D7F898301B0A7C
:10DB4800DAB2114B9A71D7F89830DAB20E4BDA7113
:10DB58004FF4FA5001F016FBC7F8A000094B1B68F8
:10DB680018460949102204F067FDC7F89C00D7F849
:10DB7800A00001F007FBD7F89C301846AC37BD462B
:10DB880090BD00BFB00000201C0B0020BCE20108C3
:10DB980004E5D03680B582B000AF00237B60094B26
:10DBA8001B68002B09DB074B1B68184604F0B6FC02
:10DBB8007860044B4FF0FF321A607B6818460837CC
:10DBC800BD4680BDB000002080B584B000AF78604D
:10DBD8000023FB6021E0FA6813469B0013449B0076
:10DBE800134A13440433184679680C220EF0C0FB1C
:10DBF8000346002B14BF00230123DBB2002B09D0FE
:10DC08000B49FA6813469B0013449B000B441033DE
:10DC18001B7809E0FB680133FB60064B1B68FA6858
:10DC28009A42D8DB4FF0FF3318461037BD4680BD07
:10DC3800400B0020380B002080B584B000AF78601E
:10DC48000023FB6020E0FA6813469B0013449B0006
:10DC5800124A13440433184679680C220EF088FBE4
:10DC68000346002B14BF00230123DBB2002B08D08E
:10DC78000A49FA6813469B0013449B000B441B682F
:10DC880008E0FB680133FB60054B1B68FA689A42A1
:10DC9800D9DB002318461037BD4680BD400B002055
:10DCA800380B002090B58DB000AF7860396007F16F
:10DCB80008031846396800F089FA0023FB6200233C
:10DCC800FB6252E03B68002B10D0FB6A582202FB33
:10DCD80003F22E4B13440433184679680C220EF0D5
:10DCE80047FB0346002B01D1012300E00023002B52
:10DCF80038D038680EF034FBB862BB6A402B01D9C3
:10DD08004023BB62FB6A582202FB03F303F11002B3
:10DD18001E4B134418463968BA6A0EF08BF91B4A31
:10DD2800FB6A582101FB03F31344503301221A7193
:10DD3800164AFB6A582101FB03F313441C6807F1D8
:10DD4800180207F108031046194600F059FA07F1BE
:10DD580018031846A047044607F11803184600F0B0
:10DD680061FA09E0FB6A0133FB62094B1B68FA6A36
:10DD78009A42A7DB4FF0FF3407F10803184600F07A
:10DD880051FA234618463437BD4690BD080C00208A
:10DD98003C0B002080B584B002AF786039607B68A6
:10DDA800012B17D13A684FF6FF739A4212D100231C
:10DDB80000930A4800210022002300F065F8074874
:10DDC8000749084A0EF0BAF8074809F095FB0748D2
:10DDD800FFF712FA0837BD4680BD00BFF0010020EA
:10DDE800A9CB0008EC010020F8010020680D0020F4
:10DDF80080B500AF01204FF6FF71FFF7CBFF80BD64
:10DE080080B500AF07F070F90346184680BD00BF23
:10DE180080B584B002AF786039607B68012B11D17E
:10DE28003A684FF6FF739A420CD1002300930748D3
:10DE380000210022002300F027F804480449054A7D
:10DE48000EF07CF80837BD4680BD00BF700D00207D
:10DE5800A9CB0008EC01002080B500AF01204FF6E7
:10DE6800FF71FFF7D5FF80BD80B483B000AF786045
:10DE78007B68044A1A607B6818460C37BD465DF813
:10DE8800047B7047300E020880B582B000AF78601E
:10DE9800F970BA707B707B681846FFF7E5FF7B68FE
:10DEA800094A1A607B68FA781A717B68BA785A71DD
:10DEB8007B687A789A717B683A7CDA717B68184655
:10DEC8000837BD4680BD00BF180E020880B584B073
:10DED80000AF786039600023FB600023BB6017E067
:10DEE8007A68BB6813441B79386819460A2200F01F
:10DEF800CBF80346FA681344FB6038682E2100F01B
:10DF0800AFF80346FA681344FB60BB680133BB6093
:10DF1800BB68022BE4DD7B68DB79386819460A2286
:10DF280000F0B2F80346FA681344FB60FB68184631
:10DF38001037BD4680BD00BF80B584B002AF7860A1
:10DF480039607B68012B11D13A684FF6FF739A420A
:10DF58000CD1002300930748002100220023FFF77B
:10DF680093FF04480449054A0DF0E8FF0837BD4609
:10DF780080BD00BF780D0020A9CB0008EC0100206F
:10DF880080B500AF01204FF6FF71FFF7D5FF80BDC8
:10DF980080B582B000AF78607B68064A1A600023BB
:10DFA800002B02D07868FFF7F9F87B681846083725
:10DFB800BD4680BD400E020880B582B000AF7860D3
:10DFC8007868FFF7E5FF7868FFF7E8F87B68184698
:10DFD8000837BD4680BD00BF90B583B000AF7860FC
:10DFE80039603B68002B01D100230CE07B681B687B
:10DFF8000C331C6838680EF0B3F903467868396842
:10E008001A46A047034618460C37BD4690BD00BFC8
:10E0180080B586B000AFF860B9607A6000237B6194
:10E028000EE0FB681B6808331A68BB68591CB960A6
:10E038001B78F8681946904703467A6913447B6150
:10E048007B685A1E7A60002B0CBF00230123DBB2C9
:10E05800002BE6D17B6918461837BD4680BD00BF46
:10E0680080B582B000AF78600B46FB707B681B6898
:10E0780008331B68FA7878681146984703461846AB
:10E088000837BD4680BD00BF80B584B000AFF860DA
:10E098000B467A60FB72FB7AF86819467A6800F0DA
:10E0A80005F8034618461037BD4680BD80B584B0D4
:10E0B80000AFF860B9607A607B68002B0AD1FB6812
:10E0C8001B6808331B68BA68D2B2F86811469847CB
:10E0D800034607E07B68DBB2F868B9681A4600F0C7
:10E0E80005F8034618461037BD4680BD80B590B088
:10E0F80000AFF860B9601346FB71202307F11402E2
:10E108001344FB63FB6B00221A70FB79012B01D8C7
:10E118000A23FB71BB68BB63FB79BA68B2FBF3F3F4
:10E12800BB60BB6BDAB2BB68DBB2F97901FB03F306
:10E13800DBB2D31A87F83730FB6B013BFB6397F8E8
:10E148003730092B04D897F837303033DBB203E087
:10E1580097F837303733DBB2FA6B1370BB68002B94
:10E16800D8D1F868F96BFFF737FF034618464037F0
:10E17800BD4680BD80B584B002AF786039607B68E9
:10E18800012B11D13A684FF6FF739A420CD1002344
:10E1980000930748002100220023FFF775FE04487A
:10E1A8000449054A0DF0CAFE0837BD4680BD00BFC8
:10E1B800800D0020A9CB0008EC01002080B500AF3D
:10E1C80001204FF6FF71FFF7D5FF80BD80B582B003
:10E1D80000AF78603960786800F032F83B68002B4F
:10E1E80008D038680EF0BCF80346786839681A46D3
:10E1F80000F0A0F87B6818460837BD4680BD00BF10
:10E2080080B582B000AF78603960786800F018F89F
:10E218007868396800F0B4F87B6818460837BD4656
:10E2280080BD00BF80B582B000AF78607B681B6896
:10E2380018460DF0D9FE7B6818460837BD4680BDE4
:10E2480080B483B000AF78607B6800221A607B6876
:10E2580000225A607B6800229A607B6800221A7349
:10E268000C37BD465DF8047B704700BF80B582B0AF
:10E2780000AF78607B681B68002B04D07B681B6844
:10E2880018460DF0B1FE7B6800221A607B680022F8
:10E298009A607B689A687B685A600837BD4680BD7B
:10E2A80080B582B000AF786039607B681B68002B4E
:10E2B80006D07B685A683B689A4201D3012316E06E
:10E2C8007868396800F018F80346002B0CBF002363
:10E2D8000123DBB2002B09D07B689B68002B03D19C
:10E2E8007B681B6800221A70012300E0002318468F
:10E2F8000837BD4680BD00BF80B584B000AF7860E8
:10E3080039607B681A683B680133104619460DF07E
:10E318008FFFF860FB68002B07D07B68FA681A60EB
:10E328007B683A685A60012300E0002318461037DA
:10E33800BD4680BD80B584B000AFF860B9607A6032
:10E34800F8687968FFF7ACFF0346002B14BF002379
:10E358000123DBB2002B04D0F868FFF787FFFB68C6
:10E3680009E0FB687A689A60FB681B681846B96818
:10E378000DF0EEFFFB6818461037BD4680BD00BFA4
:10E3880080B582B000AF786039607A683B689A429D
:10E3980001D17B6811E03B681B68002B09D03B6802
:10E3A8001A683B689B68786811461A46FFF7C2FFEF
:10E3B80002E07868FFF75AFF7B6818460837BD46C1
:10E3C80080BD00BF80B582B000AF786039607B68DF
:10E3D8009B68002B0AD13B68002B03D03B681B7855
:10E3E800002B01D1012300E0002317E03B68002B3C
:10E3F80008D17B681B681B78002B14BF00230123FE
:10E40800DBB20BE07B681B6818463968FDF7B8FE7D
:10E418000346002B14BF00230123DBB2184608373C
:10E42800BD4680BD80B483B000AF0346FB71FB7965
:10E4380003F00303002B14BF00230123DBB21846AB
:10E448000C37BD465DF8047B704700BF80B582B0CD
:10E4580000AF02460B46FA71BB71BB79022B06D19D
:10E46800FB791846FFF7DEFF03461C330AE0BA794A
:10E47800BB79072B94BF00230123DBB2134403F0BD
:10E4880001031E3318460837BD4680BD80B582B0EB
:10E4980000AF0346FB71FB791846FFF7C3FF03463D
:10E4A80003F26D1318460837BD4680BD80B584B0A9
:10E4B80000AF3B4683E803003B78FB737B787B73B4
:10E4C800BB78BB73FB783B7307F10C03012019463B
:10E4D80008F0DEF93B793B727B797B72BB79BB72C2
:10E4E80007F108030120194608F048F91037BD461E
:10E4F80080BD00BF80B58EB000AF78607B68544A9D
:10E5080082FB03121A441214DB17D31A3B623B6ACC
:10E5180001337B6340F2B2733B633B6BDBB218465B
:10E52800FFF7B4FFF8620CE07A6BFB6AD31A7B63DF
:10E538003B6B01333B633B6BDBB21846FFF7A6FF2F
:10E54800F8627A6BFB6A9A42EEDC0123BB623B6B92
:10E55800DAB2BB6ADBB210461946FFF777FF78627A
:10E568001CE07A6B7B6AD31A7B63BB6A0133BB629C
:10E57800BB6A0C2BD4BF00230123DBB2002B04D0D1
:10E588003B6B01333B630123BB623B6BDAB2BB6A73
:10E59800DBB210461946FFF759FF78627A6B7B6A3F
:10E5A8009A42DEDC7B682A4A82FB03121A44111461
:10E5B800DA178A1A274901FB02F29B1AFB61FB69E9
:10E5C800254A82FB03121A44D212DB17D31ABB6105
:10E5D800FB69214A82FB03121A44D112DA178A1AFC
:10E5E8004FF4616101FB02F29B1A7B617B691B4A54
:10E5F80082FB03121A445211DB17D31A3B617A6962
:10E60800164B83FB021313445911D317C91A0B462F
:10E618001B015B1A9B00D31A7B613B6BDBB23B721D
:10E62800BB6ADBB27B727B6BDBB2BB72BB69DBB2F2
:10E638003B733B69DBB27B737B69DBB2BB7307F16E
:10E64800080393E80300FFF731FF3837BD4680BD64
:10E6580007452EC280510100C5B3A29189888888D8
:10E6680080B584B002AF786039607B68012B11D126
:10E678003A684FF6FF739A420CD10023009307487B
:10E68800002100220023FFF7FFFB04480449054A44
:10E698000DF054FC0837BD4680BD00BF880D002032
:10E6A800A9CB0008EC01002080B500AF01204FF68F
:10E6B800FF71FFF7D5FF80BD80B483B000AF7860ED
:10E6C8007B68064A1A607B6800225A607B68184695
:10E6D8000C37BD465DF8047B704700BF400E02084A
:10E6E80080B582B000AF78607B681846FFF7E4FF1A
:10E6F8007B68054A1A607B684FF47A729A607B6877
:10E7080018460837BD4680BD800E020880B582B025
:10E7180000AF78607B68084A1A607B681846FFF784
:10E7280037FC0023002B02D07868FEF737FD7B68A2
:10E7380018460837BD4680BD800E020880B582B0F5
:10E7480000AF78607868FFF7E1FF7868FEF726FD8C
:10E758007B6818460837BD4680BD00BF80B582B0CB
:10E7680000AF78607B681846FFF7BAFF7B68034AFA
:10E778001A607B6818460837BD4680BD580E0208E7
:10E7880080B483B000AF786039600C37BD465DF85F
:10E79800047B704780B485B000AF7860FB7B184677
:10E7A8001437BD465DF8047B704700BF80B483B062
:10E7B80000AF7860002318460C37BD465DF8047B2F
:10E7C800704700BF80B483B000AF78600B46FB7021
:10E7D800012318460C37BD465DF8047B704700BF1F
:10E7E80080B483B000AF78600C37BD465DF8047B19
:10E7F800704700BF80B483B000AF78604FF0FF333C
:10E8080018460C37BD465DF8047B704780B582B06A
:10E8180000AF78607B68084A1A607B681846FFF783
:10E8280075FF0023002B02D07868FEF7B7FC7B68E1
:10E8380018460837BD4680BD580E020880B582B01C
:10E8480000AF78607868FFF7E1FF7868FEF7A6FC0C
:10E858007B6818460837BD4680BD00BF80B584B0C8
:10E8680002AF786039607B68012B19D13A684FF69E
:10E87800FF739A4214D1002300930B480021002211
:10E888000023FFF701FB08480849094A0DF056FB29
:10E898000848FFF763FF07480749054A0DF04EFB94
:10E8A8000837BD4680BD00BF900D0020A9CB0008E9
:10E8B800EC010020980D002015E8000880B500AF95
:10E8C80001204FF6FF71FFF7C9FF80BD80B483B008
:10E8D80000AF78607B6818460C37BD465DF8047B4E
:10E8E800704700BF80B483B000AF78607B6818467B
:10E8F8000C37BD465DF8047B704700BF80B500AF9C
:10E9080000F07EF8034683F00103DBB2002B4ED003
:10E91800274B00221A70002004F0A0F9254B012291
:10E928001A70254B00221A7048F2042004F0ACFC3F
:10E93800224B1B68012B08D00E2010210022204BEF
:10E9480002F0CAFC0346102B01D0012300E000238B
:10E95800002B06D000F094F9184B00221A6006F03C
:10E96800A9F9184B1B78DBB2002B09D100F078F914
:10E97800034683F00103DBB2002B01D0012300E042
:10E988000023002B02D000F081F80EE00E4B00228D
:10E998001A704FF47F4005F081FBE72005F056FC24
:10E9A80000200021012204F081FA00F0B7F980BDAF
:10E9B800140E00203F0E00203E0E002054000020C0
:10E9C8002C0E0020150E0020440E002080B500AF4C
:10E9D80000F016F80346002B0CD0074B01221A70E2
:10E9E800064B00221A7000200021002204F05EFA73
:10E9F80004F03CFA80BD00BF140E0020400E002039
:10EA080080B400AF0B4B1B78DBB2002B06D00A4B4F
:10EA18001B78DBB2002B01D0012300E00023002B80
:10EA280001D0012300E000231846BD465DF8047BB1
:10EA3800704700BF3F0E00201A0E002080B500AFBF
:10EA48000E4B1B78DBB2002B0CBF00230123DBB27B
:10EA5800002B11D004F046F9094B01221A70094B1A
:10EA680000221A70084B01221A706FF07F4005F0DF
:10EA780015FBE72005F0EAFB80BD00BF3F0E002034
:10EA88003E0E0020400E0020440E002080B400AF4F
:10EA9800034B01221A70BD465DF8047B704700BF26
:10EAA800170E002080B400AF0D4B1B78DBB2002B93
:10EAB8000BD00C4B1B78DBB2002B06D10A4B1B7812
:10EAC800DBB2002B01D1012300E00023002B01D091
:10EAD800012300E000231846BD465DF8047B70471B
:10EAE800170E0020B8000020B900002090B58DB0A6
:10EAF80006AFF860B9607A603B60554B1B78DBB2B3
:10EB0800002B14BF00230123DBB2002B00D09CE0B4
:10EB18007B681B78002B01D10023BB62BB6A032BE7
:10EB280000F2878001A252F823F000BF45EB0008ED
:10EB380073EB00080DEC00080DEC000801230093AE
:10EB480000230193002302930023039300230493DB
:10EB5800002305930020F968BA68002304F0D6F969
:10EB68000346DAB23B4B1A7063E03B4B1B78DBB2CF
:10EB7800002B14BF00230123DBB2002B2BD07868B5
:10EB88000DF0EEFB03465B083B600023BB740023DB
:10EB98007B611CE07B695B007A6813441B783B74DB
:10EBA8007B695B0001337A6813441B787B747A684D
:10EBB8007B69D41807F110031846002110220DF0C4
:10EBC80073FC0346DBB223707B6901337B617A698E
:10EBD8003B689A42DED3012300933B6801930023EC
:10EBE8000293002303937B68049300230593012079
:10EBF800F968BA68002304F089F90346DAB2154BBC
:10EC08001A7016E001230093182301931E23029320
:10EC1800022303937B6804933B6805930320F968F8
:10EC2800BA68002304F072F90346DAB2094B1A7085
:10EC380000BF084B1B780133DAB2084B1A700E205C
:10EC480001210022054B02F081FB1C37BD4690BD17
:10EC58003F0E0020280E0020B80000202C0E0020B7
:10EC680080B400AF054B1B78002B01D0012300E0D6
:10EC780000231846BD465DF8047B70472C0E002023
:10EC880080B500AFFF2004F0DBFA0346002B14BF69
:10EC980000230123DBB2002B05D000F08FF800F031
:10ECA80059F8012300E00023184680BD80B584B0E0
:10ECB80002AF786039607B68012B19D13A684FF64A
:10ECC800FF739A4214D1002300930B4800210022BD
:10ECD8000023FFF7D9F808480849094A0DF02EF92A
:10ECE8000848FFF7F3FD07480749054A0DF026F9DC
:10ECF8000837BD4680BD00BFA80D0020A9CB00087D
:10ED0800EC010020B00D0020EDE8000880B500AF50
:10ED180001204FF6FF71FFF7C9FF80BD80B584B0B1
:10ED280000AF4FF46153FB604FF46163BB600A238B
:10ED38007B6000233B6044F6206000F023FA07F173
:10ED48000C0007F108013A1D3B4602F041FA103762
:10ED5800BD4680BD80B584B000AF0023FB600023B2
:10ED6800BB6000237B6000233B6007F1080007F1CC
:10ED78000C013A1D3B4602F0C1F91037BD4680BD73
:10ED880090B587B002AFF860B9607A600A4B01228B
:10ED98001A70F8680DF0E4FA0446B8680DF0E0FA65
:10EDA80003467A680092F8682146BA68FFF79EFE23
:10EDB8001437BD4690BD00BFB900002080B500AF34
:10EDC8000E20002102F024FB0E20102102F020FB6F
:10EDD8000548002110220DF051F90E2010210022C3
:10EDE800014B02F0B3FA80BD2C0E002080B582B032
:10EDF80000AF78607B681846FFF708FD7B68184607
:10EE08000837BD4680BD00BF80B5A0B000AF464BF7
:10EE180000221A70454B00221A70454B00221A70C6
:10EE2800444B00221A70444B00221A70434B0022B4
:10EE38001A70434B00221A70424B00221A70424B40
:10EE480000221A70414B00221A70FF2005F026F9A3
:10EE5800E72005F0FBF9FFF7B9FD0C20102102F0BF
:10EE6800D7FA3B4803F098FA3A4804F07BFA0120B5
:10EE780004F050FA3B1D1846374900F0D7FE2CE045
:10EE8800364B1B78DBB2002B0CBF00230123DBB20F
:10EE9800002B18D01923FB6705E0E72005F05EFA80
:10EEA800322004F017FFFB6F5A1EFA67002B0CBFC5
:10EEB80000230123DBB2002BEFD1FFF7E1FE274B44
:10EEC80000221A7009E0E72005F048FAFA2004F059
:10EED80001FF3B1D184600F0C1FEFFF7E3FD0346A6
:10EEE800002BCDD1E72005F0B1F90E200121002239
:10EEF8001B4B02F0F1F90C4B1B78DBB2002B0CBF5B
:10EF080000230123DBB2002B01D000F0E7FBFFF761
:10EF1800F5FC144B00221A703B1D1846FFF766FFDC
:10EF28008037BD4680BD00BFB8000020180E002005
:10EF3800B9000020190E00201A0E00201B0E002018
:10EF4800410E0020420E0020430E0020440E0020F7
:10EF5800A00E0208BC00002089ED0008160E002053
:10EF68002C0E0020170E002080B586B000AFF86088
:10EF7800B9601346FB71FB6848F2100293426ED0E9
:10EF880048F2100293420ADC48F2010293421DD073
:10EF980048F2020293422FD0992B7AD0A5E048F28A
:10EFA8008002934208D0B3F5084F00F0828048F2FF
:10EFB8004002934271D098E04D4B01221A704D4B9C
:10EFC80001221A704C4B00221A708EE04B4B012222
:10EFD8001A704B4B1B78DBB2002B14BF00230123A4
:10EFE800DBB2002B07D0FEF70BFF034603F5EA431D
:10EFF8003033444A136078E0404B1B78DBB2002B77
:10F0080006D03F4B1B78DBB2002B01D1012300E077
:10F018000023002B07D0FEF7F3FE034603F5EA436F
:10F028003033384A1360354B00221A70364B0022B1
:10F038001A70364B00221A70354B00221A70354B65
:10F0480000221A70344B01221A70FF2005F026F8AE
:10F05800E72005F0FBF8314B00221A7045E0BB6849
:10F0680014331B78002B10D1264B00221A60264B34
:10F0780001221A70284B01221A704FF47F4005F0C4
:10F088000DF8E72005F0E2F82FE01F4B00221A7078
:10F098002BE0234B01221A7027E0FB792148B9683D
:10F0A8001A460CF0C7FF204B1B685A1C1E4B1A60EF
:10F0B8001BE04FF0FF337B61B868002101F01EF8B8
:10F0C80003467B617869012101F0EEFD174B1B684F
:10F0D8007A699A4208D10F4B00221A700C4B002211
:10F0E8001A700A4B00221A7000BF1837BD4680BD3F
:10F0F800B8000020180E0020150E0020190E002060
:10F10800140E00201C0E00201A0E0020410E0020B4
:10F11800420E0020430E0020440E0020450E002021
:10F128001B0E0020FC0D0020100E0020B000002057
:10F1380080B483B000AF78607B6800221A60002337
:10F1480018460C37BD465DF8047B704780B483B021
:10F1580000AF78607B6800221A60002318460C37DD
:10F16800BD465DF8047B704780B483B000AF78601B
:10F178007B6800221A60002318460C37BD465DF8EC
:10F18800047B704780B485B000AF7860064B1B687D
:10F19800FB60054B7A681A60FB6818461437BD4651
:10F1A8005DF8047B704700BF7C01002080B586B005
:10F1B80004AF7860134B7A681A6005F0B5FA05F069
:10F1C8009BFB114B0093114B0193114B0293114B75
:10F1D800039311481149124A124B03F0FFFC6420B3
:10F1E80004F078FDFEF74AF80346002B14BF00230D
:10F1F8000123DBB2002B01D0FFF780FB0837BD46A7
:10F2080080BD00BF240E0020E5490108FD49010822
:10F21800814A0108B14A010871EF000839F1000874
:10F2280055F1000871F1000890B585B002AF07F0FC
:10F238007DF8A44B00221A60A34B1B78DBB2002B8D
:10F248000FD1A24B1B78DBB2002B0AD1A04B1B6855
:10F25800002B08D0FEF7D4FD02469D4B1B689A424E
:10F2680001D3012300E00023002B2AD0994B1B78FF
:10F27800DBB2002B0CBF00230123DBB2002B43D0F1
:10F28800934B00221A60944B00221A70934B002271
:10F298001A708D4B00221A708E4B00221A70904BF8
:10F2A80000221A708F4B00221A708F4B00221A709E
:10F2B8008E4B00221A708E4B00221A60FFF7BEFB9D
:10F2C80022E0844B1B78DBB2002B14BF0023012300
:10F2D800DBB2002B18D0874B1B78DBB2002B06D192
:10F2E800854B1B78DBB2002B01D1012300E0002302
:10F2F800002B07D0FEF784FD034603F5EA433033BD
:10F30800734A1360FFF7FAFA7C4B1B78DBB2002BC9
:10F318000CBF00230123DBB2002B02D0FFF774FDE2
:10F3280028E0744B1B78DBB2002B06D06B4B1B78A4
:10F33800DBB2002B01D1012300E00023002B19D000
:10F34800634B00221A60FFF741FB6D480DF008F887
:10F3580003461C466B480DF003F80346694A0092C1
:10F368000193032066492246002303F0D5FC614B34
:10F3780000221A70644B1B78DBB2012B0BD1574B60
:10F388001B78DBB2012B06D1534B1B78DBB2012B68
:10F3980001D1012300E00023002B15D00023FB71CD
:10F3A8000CE05A480CF0DCFF03469BB20120574999
:10F3B8001A4603F09BFBFB790133FB71FB79022BA7
:10F3C800EFD9514B00221A70444B1B78DBB2002B4B
:10F3D80006D03E4B1B78DBB2002B01D1012300E0A5
:10F3E8000023002B0AD04A4BDB78002B0FD1642076
:10F3F80004F070FC464801F057FF08E0444BDB7806
:10F40800002B04D0424800213A220CF037FE414B31
:10F418001B78DBB2002B14BF00230123DBB2002BC7
:10F428002BD02F4B1B78DBB2002B04D12D4B1B7834
:10F43800DBB2002B01D0012300E00023002B1BD0FE
:10F44800FEF7A8FB284B00221A70264B00221A70E0
:10F45800234B00221A70284B1B78DBB2002B14BFF9
:10F4680000230123DBB2002B06D04FF47F4004F0C9
:10F4780015FEE72004F0EAFE1BE1184B1B78DBB20F
:10F48800002B0BD0114B1B78DBB2002B06D1144B91
:10F498001B78DBB2002B01D1012300E00023002BF5
:10F4A80000F0C480114B1B78DBB2002B0CBF00238B
:10F4B8000123DBB2002B57D04FF47F0004F0EEFDA0
:10F4C8003FE000BF200E00203D0E00203E0E002031
:10F4D8001C0E00203F0E0020190E00201A0E0020DE
:10F4E800410E0020420E0020430E0020450E002051
:10F4F800480E0020150E0020140E0020170E0020C4
:10F50800C8000020D0000020180E0020C0000020F5
:10F51800C00D0020400E0020E72004F097FE4FF4B5
:10F52800FA7004F0D7FBE72004F0E4FE4FF4FA7019
:10F5380004F0D0FB604B1B78DBB2013BDAB25E4BC8
:10F548001A705D4B1B78DBB2002B0CBF0023012324
:10F55800DBB2002BE0D1594B0022DA700E200121DA
:10F568000322574B01F0F2FE564B00221A704FF659
:10F57800FF7004F093FDE72004F068FEFEF75EFAE2
:10F588000346DB43DB0FDBB2002B06D04E4B0022D9
:10F598001A604E4B01221A7048E04D4B1B78DBB2C3
:10F5A800002B0CBF00230123DBB2002B00D080E02E
:10F5B800454B1B685A1C444B1A60434B1B68022B73
:10F5C80014BF00230123DBB2002B02D0404B0122E1
:10F5D8001A70FEF7FBF90346DB0FDBB2002B14D0E1
:10F5E800394B1B685A1C384B1A60374B1B68022B67
:10F5F80014BF00230123DBB2002B02D0344B0122BD
:10F608001A702D4B02221A7002E02B4B03221A703B
:10F61800294B1B78DAB2294BDA700E20012103221C
:10F62800274B01F093FE294B00221A70274B1B78B9
:10F63800DBB2002B0CBF00230123DBB2002B38D038
:10F64800244B1B78DBB2002B14BF00230123DBB251
:10F65800002B22D0FEF7FAF838603B68002B19D04F
:10F668003B68002B04DA4FF47F0004F017FD0DE02F
:10F678003B68012B03D1184804F010FD06E03B68F5
:10F68800022B03D14FF0FF1004F008FDE72004F02F
:10F69800DDFD02E00F4B01221A70FDF7EFFD034676
:10F6A800022B0CBF00230123DBB2002B01D0FDF796
:10F6B800AFFE0C37BD4690BD450E00202C0E002035
:10F6C8002F0E0020440E0020480E0020410E00207E
:10F6D8003D0E0020420E00200060FF0080B5B2B051
:10F6E80002AF0D2043210022324B01F0F5FD034605
:10F6F800432B0CBF00230123DBB2002B57D12E4B29
:10F70800C7F8B4302B4B1B78C7F8B030294B1B789F
:10F71800DA1C284B1344C7F8B8303B46D7F8B80072
:10F7280026491A4602F026FE224B1B780133214A4D
:10F73800D35C102B09D9D7F8B83003F110023B4637
:10F7480010461E491A4602F015FED7F8B8301F3386
:10F758001B78002B11D0D7F8B8301B781F2B08D195
:10F768001F23C7F8BC30D7F8B8300133C7F8B83012
:10F778000DE02023C7F8BC3009E0D7F8B8301B7873
:10F78800C7F8BC30D7F8B8300133C7F8B830094BE0
:10F798001B780233074AD35C0093D7F8B400D7F834
:10F7A800B010D7F8B820D7F8BC30FFF79FF9C037AA
:10F7B800BD4680BD680E0020690E0020A00E02081C
:10F7C80080B584B002AF786039607B68012B11D1B5
:10F7D8003A684FF6FF739A420CD10023009307480A
:10F7E800002100220023FEF74FFB04480449054A84
:10F7F8000CF0A4FB0837BD4680BD00BFB80D002043
:10F80800A9CB0008EC01002080B500AF01204FF61D
:10F81800FF71FFF7D5FF80BD80B400AFBD465DF82E
:10F82800047B704780B500AF012005F017FFFEE7A5
:10F8380080B500AF032005F011FFFEE780B500AFEB
:10F84800042005F00BFFFEE780B500AF052005F0AA
:10F8580005FFFEE780B400AFBD465DF8047B704746
:10F8680080B400AFBD465DF8047B704780B400AF3C
:10F87800BD465DF8047B704780B500AF05F026FCF7
:10F88800FDF724FB80BD00BF80B500AF024B002B05
:10F8980001D0AFF3008080BD0000000080B500AF4C
:10F8A800024B002B01D0AFF3008080BD00000000A8
:10F8B80080B500AF024B002B01D0AFF3008080BDB4
:10F8C8000000000080B500AF024B002B01D0AFF361
:10F8D800008080BD0000000080B500AF024B002B07
:10F8E80001D0AFF3008080BD0000000080B500AFFC
:10F8F800012006F0CDFA0346002B0CBF002301239C
:10F90800DBB2002B08D0012006F0DCFA034B002BF9
:10F9180002D00020AFF3008080BD00BF00000000CF
:10F9280080B500AF022006F0B3FA0346002B0CBFE7
:10F9380000230123DBB2002B08D0022006F0C2FA14
:10F94800034B002B02D00120AFF3008080BD00BF25
:10F958000000000080B500AF042006F099FA0346C5
:10F96800002B0CBF00230123DBB2002B0ED0042098
:10F9780006F0A8FA064B00221A800020002104F0A5
:10F988005BFE04481021012207F01AFD80BD00BF6C
:10F99800A40100200000014080B500AF082006F057
:10F9A80077FA0346002B0CBF00230123DBB2002BA0
:10F9B80008D0082006F086FA034B002B02D003205B
:10F9C800AFF3008080BD00BF0000000080B500AF2D
:10F9D800102006F05DFA0346002B0CBF002301231C
:10F9E800DBB2002B08D0102006F06CFA034B002B7A
:10F9F80002D00420AFF3008080BD00BF00000000EB
:10FA080080B500AF202006F043FA0346002B0CBF58
:10FA180000230123DBB2002B08D0202006F052FA85
:10FA2800174B002B02D00520AFF30080402006F0D2
:10FA38002FFA0346002B0CBF00230123DBB2002B57
:10FA480008D0402006F03EFA0D4B002B02D00620CD
:10FA5800AFF30080802006F01BFA0346002B0CBF92
:10FA680000230123DBB2002B08D0802006F02AFAFD
:10FA7800034B002B02D00720AFF3008080BD00BFEE
:10FA88000000000080B500AF4FF4005006F000FA07
:10FA98000346002B0CBF00230123DBB2002B09D047
:10FAA8004FF4005006F00EFA224B002B02D00D2026
:10FAB800AFF300804FF4804006F0EAF90346002BCC
:10FAC8000CBF00230123DBB2002B09D04FF4804088
:10FAD80006F0F8F9174B002B02D00E20AFF3008088
:10FAE8004FF4004006F0D4F90346002B0CBF002366
:10FAF8000123DBB2002B09D04FF4004006F0E2F9F5
:10FB08000C4B002B02D00F20AFF300804FF40060A5
:10FB180006F0BEF90346002B0CBF00230123DBB21D
:10FB2800002B05D04FF4006006F0CCF903F0B2FFCB
:10FB380080BD00BF0000000080B500AF164810214E
:10FB480007F062FC0346002B0CBF00230123DBB245
:10FB5800002B1FD01048102107F080FC002004F073
:10FB6800A5FD0346012B14BF00230123DBB2002BA4
:10FB780007D00A4B1B889BB20A339AB2074B1A80EC
:10FB880008E005481021002207F01AFC0020012196
:10FB980004F052FD80BD00BF00000140A401002018
:10FBA80080B500AF034B1B68002B02D0014B1B68CC
:10FBB800984780BD4C0E002080B500AF034B1B68F2
:10FBC800002B02D0014B1B68984780BD500E0020C7
:10FBD80080B500AF034B1B68002B02D0014B1B689C
:10FBE800984780BD540E002080B500AF4FF4804088
:10FBF80006F02EFF0346002B0CBF00230123DBB2C7
:10FC0800002B0AD0054B00221A704FF4804006F0F2
:10FC180053FF4FF4800006F055F980BD3E0E0020DA
:10FC280080B500AF03F068FE80BD00BF80B582B02C
:10FC380000AF786039607B681846FEF78FFD7B68F7
:10FC48003A681A617B6818464FF41651FEF798FD1A
:10FC58007B6818460837BD4680BD00BF80B58AB0AE
:10FC680000AF78607B681846FEF7A0FD0346002BBE
:10FC7800D4BF00230123DBB2002B00F0DB807B68BC
:10FC88001846FEF787FD0346FB77FB7F772B40F08E
:10FC980081807B6814331846002121220CF0EEF98C
:10FCA8007B6835331846002141220CF0E7F97B6860
:10FCB80076331846002102220CF0E0F978685F4993
:10FCC80000F0DCF87B68143378681946202200F0CD
:10FCD800FBF878685A4900F0D1F87B687633786881
:10FCE8001946012200F0F0F87B6893F876302F2B44
:10FCF800EFD97B6893F87630332BEAD87B6893F892
:10FD08007630312B0BD178684E4900F0B7F8786817
:10FD18004D4900F0B3F878684C4900F0AFF87B68BB
:10FD280093F87630303BBB61BB69002B0AD078680A
:10FD3800474900F0A3F87B683533786819464022B4
:10FD480000F0C2F87868434900F098F87B681B69AE
:10FD58007A6802F114017A68353208461146BA69A0
:10FD6800984778683C4900F089F878683B4900F082
:10FD780085F878683A4900F081F87868394900F0E0
:10FD88007DF87868384900F079F87868374900F0E4
:10FD980075F84FE0FB7F692B4CD107F10C0318462F
:10FDA80033490C220CF046F97868324900F066F8BD
:10FDB80000233B6237E007F10C023B6A13441B78CF
:10FDC8001B11DBB2303387F8273097F82730392BEF
:10FDD80004D997F82730273387F827307A6897F8B7
:10FDE800273010461946FEF7EDFC07F10C023B6A76
:10FDF80013441B7803F00F03DBB2303387F8273046
:10FE080097F82730392B04D997F82730273387F804
:10FE180027307A6897F8273010461946FEF7D2FC43
:10FE28003B6A01333B623B6A0B2BC4DD786812499D
:10FE380000F024F82837BD4680BD00BFCCE2010899
:10FE4800D4E2010804E301083CE3010868E301087F
:10FE5800B0E30108BCE3010800E4010820E401085C
:10FE680054E4010888E40108C8E40108FCE4010836
:10FE7800107AFF1F14E5010828E5010880B584B051
:10FE880000AF786039600023FB600EE07A6839685B
:10FE9800FB680B441B7810461946FEF793FC0120BB
:10FEA80003F018FFFB680133FB6038680CF058FA60
:10FEB8000246FB689A4294BF00230123DBB2002B61
:10FEC800E4D11037BD4680BD80B586B000AFF8607C
:10FED800B9607A600023BB750023FB75FB68184680
:10FEE800FEF764FC0346002BD4BF00230123DBB2DA
:10FEF800002B37D0FB681846FEF74CFC0346BB7551
:10FF0800FA7D7B689A4205D0BB7D0D2B02D0BB7D64
:10FF18000A2B08D1BB6800221A7000BFF8681B4979
:10FF2800FFF7ACFF23E0BB7D082B02D0BB7D7F2B06
:10FF38000AD1FB7D002B06D0BB68013BBB60FB7D73
:10FF4800013BFB7508E00DE0BB685A1CBA60BA7D3E
:10FF58001A70FB7D0133FB75FA68BB7D10461946A4
:10FF6800FEF730FCBAE7FB681846FEF713FCFB689F
:10FF78001846FEF71BFC0346002BD4BF00230123C1
:10FF8800DBB2002BEFD11837BD4680BD28E501084C
:10FF980080B584B002AF786039607B68012B11D1DD
:10FFA8003A684FF6FF739A420CD100230093074832
:10FFB800002100220023FDF767FF04480449054A91
:10FFC8000BF0BCFF0837BD4680BD00BF580E0020AF
:10FFD800A9CB0008EC01002080B500AF01204FF646
:10FFE800FF71FFF7D5FF80BD002100F004B80E4B6C
:08FFF8005B58435004310D4831
:020000040801F1
:100000000D4B42189A42FFF4F6AF0C4A00F003B8C9
:10001000002342F8043B0A4B9A42FFF4F9AF05F083
:1000200045FAFCF771FEFDF7A1F8FCF7ADFE70474D
:10003000B8110208000000207C0100207C01002093
:1000400038170020FFF7FEBF80B483B000AF7860A0
:1000500039607B685A1C7A603A68D2B21A707B6841
:100060005A1C7A603A68120AD2B21A707B685A1C1B
:100070007A603A68120CD2B21A707B685A1C7A60A5
:100080003A68120ED2B21A707B6818460C37BD4619
:100090005DF8047B704700BF80B483B000AF786028
:1000A0000B467B807B685A1C7A607A88D2B21A70C1
:1000B0007B685A1C7A607A88120A92B2D2B21A709D
:1000C0007B6818460C37BD465DF8047B704700BF5F
:1000D00080B483B000AF78600B467B807B880133AF
:1000E0007A6813441B781B029AB27B8879680B44A8
:1000F0001B7813449BB218460C37BD465DF8047B51
:10010000704700BF80B483B000AF78600B467B803F
:100110007B8803337A6813441B781A067B88023382
:1001200079680B441B781B041A447B880133796877
:100130000B441B781B021A447B8879680B441B789C
:10014000134418460C37BD465DF8047B704700BF6A
:1001500080B586B000AF78607B6805337B61002393
:10016000FB607B691B78022B25D0032B44D0012B2D
:1001700000D062E0324B1B69002B13D0304B1B695F
:1001800007F10C021046984738613B69002B09D0F3
:100190002B4B9A68FB689BB2012011463A6900F02C
:1001A00015FF4AE0264B9B680120194600220023D8
:1001B00000F00CFF41E0224BDB68002B13D0204BFA
:1001C000DB6807F10C021046984738613B69002B49
:1001D00009D01B4B9A68FB689BB2022011463A6912
:1001E00000F0F4FE29E0164B9B680220194600221D
:1001F000002300F0EBFE20E0114B5B69002B13D0D5
:100200000F4B5B6907F10C021046984738613B6958
:10021000002B09D00A4B9A68FB689BB20320114659
:100220003A6900F0D3FE08E0054B9B6803201946AD
:100230000022002300F0CAFE00BF1837BD4680BD73
:10024000AC0E002090B591B000AFF860B9607A6054
:100250000023FB8704F04CFF0346BB61BC4B5B886B
:100260009BB2002B40F0BD8006F064F804F040FF24
:1002700003467B617A69BB69D31A3B613B69002BFA
:1002800003DABA697B6913443B61B24B1B68002BEC
:1002900000F0A6803B691A46AE4B1B689A42C0F03C
:1002A0009F80AB4B1B889BB241F2070293422ADC32
:1002B00041F20602934274DA40F20222934270D075
:1002C00040F2022293420FDC0C2B06DC082B68DA8A
:1002D000012B5EDB062B64DD74E00D2B5DD040F25C
:1002E0000122934259D054E041F2020293425DDC74
:1002F000B3F5805F55DCB3F5017F4EDD40F2072298
:1003000093424AD045E041F21102934245D041F276
:10031000110293421DDC41F20B02934241D041F2A3
:100320000B02934208DC41F20902934239D041F2B8
:10033000090293423ADC30E041F20F02934235D099
:1003400041F20F0293422CDC41F20D0293422DD078
:100350001FE042F2060293421FD042F2060293428D
:1003600007DCB3F5005F14DD42F20402934214DDB2
:100370002CE0B3F5804F2FD0B3F5804F05DCA3F50B
:100380000053083B012B04D807E044F20B029342D0
:1003900022D00B2005F066F91FE0FB68FF221A70DF
:1003A0001BE0FB684FF0FF321A6016E0FB684FF06D
:1003B000FF321A60FB680433FB60FB684FF0FF32CA
:1003C0001A600AE0FB6800221A6006E0F868002163
:1003D0003A220BF057FE00E000BF00BF0023BEE250
:1003E000BCE25B4B5B683B633B6B1B78042B40F0D0
:1003F0005082386B0121FFF76BFE0346FB873B6B96
:100400000533FB62FB6ABB62FB68BB63386B00F0C1
:10041000ADFA0346002B40F02E823B6B03331B7872
:10042000FB84FB8F41F2070293423EDC41F206025D
:10043000934280F2A98040F20222934200F0A4800D
:1004400040F20222934214DC0C2B09DC082B80F2D0
:100450009B80012BC0F20F82062B40F3958051E167
:100460000D2B00F08C8040F20122934200F0878037
:1004700001E241F2020293420CDCB3F5805F00F32B
:100480008380B3F5017F7ADD40F20722934200F0CA
:100490008380F0E141F20402934200F0C58041F212
:1004A0000402934200F3A480E6E041F21202934278
:1004B00000F0958041F21202934229DC41F20B02D6
:1004C000934261D041F20B02934209DC41F20902EE
:1004D000934259D041F20902934200F30881E0E0CF
:1004E00041F20F02934200F0C78041F20F029342A3
:1004F00005DC41F20D02934200F09680BBE141F22F
:100500001002934259D041F21102934237D0B2E126
:1005100042F20602934232D042F20602934208DCD3
:10052000B3F5005F40F3A78142F20402934226DD57
:100530001AE1B3F5804F00F09D81B3F5804F0BDCDD
:10054000A3F50053083B012B00F2958117E000BF93
:10055000AC0E00207C01002044F20B02934240F0DC
:100560008A81FB6A1B781A469D4B1A86F86A01211C
:10057000FFF7AEFD03461A46994B5A867BE13B6B6B
:100580001A79FB681A7076E1F86A0021FFF7BAFD64
:100590000246FB681A606EE13B6B1A79FB681A70C1
:1005A000FB680133FB60F86A0021FFF7ABFD38629E
:1005B000F868396AFFF748FD5DE1F86A0021FFF746
:1005C000A1FD0246FB681A60FB680433FB60F86A11
:1005D0000421FFF797FD0246FB681A604BE1F86AB9
:1005E0000021FFF775FD03461A46FB681A8042E1B9
:1005F000F86A0021FFF786FD0246FB681A60FB6877
:100600000433FB60F86A0421FFF77CFD0246FB68B7
:100610001A60FB680433FB60FB6A0833F86819460C
:1006200010220BF00BFD26E1F86A0021FFF76AFDAE
:100630000246FB681A60FB680433FB60F86A042119
:10064000FFF760FD0246FB681A60FB680433FB603D
:10065000F86A0821FFF756FD0246FB681A60FB683E
:100660005B6813F1390F06D1FB681B68184601213E
:1006700000F01EFBFFE0FEE0F86A0021FFF742FDFC
:100680000246FB681A60FB680433FB60F86A0421C9
:10069000FFF738FD0246FB681A60FB680433FB6015
:1006A000E9E0F86A0021FFF72DFD0246FB681A60B9
:1006B000FB680433FB60F86A0421FFF723FD024660
:1006C000FB681A60FB680433FB60F86A0821FFF7D7
:1006D00019FD0246FB681A60FB680433FB60F86A88
:1006E0000C21FFF70FFD0246FB681A60C3E03B6B6D
:1006F00004331A78FB681A71F868F96A04220BF05F
:100700009DFCB8E0F86A0021FFF7FCFC0246FB689C
:100710001A60FB680433FB60F86A0421FFF7F2FCFF
:100720000246FB681A60FB680433FB60F86A082124
:10073000FFF7CEFC03461A46FB681A60FB680233DB
:10074000FB60F86A0A21FFF7C3FC03461A46FB6800
:100750001A60FB680233FB60FB6A0C33F8681946C9
:1007600026220BF06BFC86E000240AE0BB6B5A1CCF
:10077000BA6322B2B96A0A4412781A70A3B201337A
:100780009CB223B2032BF1DDBB6A0433BB620024AD
:100790000AE0BB6B5A1CBA6322B2B96A0A441278E7
:1007A0001A70A3B201339CB223B2032BF1DDBB6AF2
:1007B0000433BB6200240AE0BB6B5A1CBA6322B24A
:1007C000B96A0A4412781A70A3B201339CB223B2F8
:1007D000032BF1DDBB6A0433BB6200240DE000BFD4
:1007E000AC0E0020BB6B5A1CBA6322B2B96A0A4431
:1007F00012781A70A3B201339CB223B2032BF1DD3D
:10080000BB6A0433BB6200240AE0BB6B5A1CBA63A8
:1008100022B2B96A0A4412781A70A3B201339CB2A8
:1008200023B2032BF1DDBB6A0433BB6200240AE070
:10083000BB6B5A1CBA6322B2B96A0A4412781A70A6
:10084000A3B201339CB223B2052BF1DDBB6A0633A0
:10085000BB6200240AE0BB6B5A1CBA6322B2B96ABD
:100860000A4412781A70A3B201339CB223B21F2B30
:10087000F1DD00E000BF3C4B1B889BB2FA8F9A422F
:1008800050D1394B00221A80374B002283F8412087
:1008900048E0354BDB8E9BB2002B43D03B6BFB62B9
:1008A0003B6B02331B78FB77386B0321FFF710FC9F
:1008B0000346FB84BB68002B12D03B6B0533184604
:1008C0000421FFF71FFC02467B681A603B6B03F1B3
:1008D00015027B681B68B86811461A460BF0AEFB20
:1008E000FA8CFB7FD31A7B637B6B002B03DD7B6B66
:1008F000B3F5806F03D94FF0FF337B6309E0FB7FD3
:100900000533FA6A1A447B6BF86811461A460BF0F5
:1009100095FB7B68002B02D07B687A6B1A60124BC8
:100920000022DA86104B00225A8002F0D9FE3B6B7F
:100930001B78042B06D1FB8FB3F5805F02D1386B97
:10094000FFF706FC084B1B889BB2002B06D1064B19
:10095000DB8E9BB2002B01D1002300E07EE4184621
:100960004437BD4690BD00BFAC0E002090B595B099
:1009700000AF78600023BB6478680121FFF7A8FB13
:1009800003467B647B6C03F48043002B1ED07B6C9E
:10099000B3F5824F1AD1786800F0CEF9A24BDB6B29
:1009A0003B64A14B9B6BFB633A6CFB6B9A420BD194
:1009B0009D4B93F84030DBB2002B05D09A4B9B69DE
:1009C0009920002100229847012330E17B6C03F439
:1009D0000043002B00F0EF807B6C48F21002934242
:1009E00032D048F2100293420CDCB3F5004F40F3D2
:1009F000DE8048F2020293421ADD48F2040293427A
:100A000016D0D4E048F28002934211D048F280021E
:100A1000934205DC48F24002934200F08A80C6E02F
:100A2000B3F5024F04D0B3F5084F00F0B180BEE03B
:100A30007D4B9B69002B06D07B4B9B69786C00211A
:100A400000229847B5E0B4E007F11C03FB647B6823
:100A50000533BB6400240AE0FB6C5A1CFA6422B222
:100A6000B96C0A4412781A70A3B201339CB223B253
:100A7000032BF1DDBB6C0433BB6400240AE0FB6C88
:100A80005A1CFA6422B2B96C0A4412781A70A3B2E2
:100A900001339CB223B2032BF1DDBB6C0433BB6486
:100AA00000240AE0FB6C5A1CFA6422B2B96C0A44B6
:100AB00012781A70A3B201339CB223B2032BF1DD7A
:100AC000BB6C0433BB6400240AE0FB6C5A1CFA6460
:100AD00022B2B96C0A4412781A70A3B201339CB2E4
:100AE00023B2032BF1DDBB6C0433BB6400240AE0AA
:100AF000FB6C5A1CFA6422B2B96C0A4412781A7060
:100B0000A3B201339CB223B2032BF1DD7B68043323
:100B10001A78FB6C1A70444B9B69002B08D0424B2F
:100B20009B6907F11C02786C11461522984740E03A
:100B30003FE07B680533BB64B86C0021FFF7E2FA45
:100B40000346BB60B86C0421FFF7DCFA0346FB6088
:100B5000B86C0821FFF7D6FA03463B61B86C0C214C
:100B6000FFF7D0FA03467B61B86C1021FFF7CAFA91
:100B70000346BB612C4B9B69002B08D02A4B9B6919
:100B800007F10802786C11461422984711E010E032
:100B90007B680533BB64244B9B69002B06D0224B3A
:100BA0009B69786CB96C0122984702E001E0002350
:100BB0003DE001233BE07A6C41F203039A4209D005
:100BC0007A6C41F20F039A4204D07A6C41F20E0320
:100BD0009A421BD17B680533BB63B86B0421FFF7D6
:100BE00091FA03467B637B6B13F1390F0CD17B6861
:100BF00004331B781A460C4BDA627B6805331846BF
:100C000000F00AF9012312E0002310E0064B1B88D4
:100C10009BB21A467B6C9A4208D07B6CB3F5805F1E
:100C200004D0012303E000BFAC0E002000231846CF
:100C30005437BD4690BD00BF80B584B000AF0023DF
:100C4000FB600023BB60194B5B889BB2002B17D065
:100C5000164B5B687B607B681B78042B14BF0023FA
:100C60000123DBB2BB60BB68002B07D07868FFF7BD
:100C70007DFE0346002B01D0012300E00023FB6032
:100C8000FB68002B08D1BB68002B0AD0074B93F8F8
:100C90004130DBB2002B04D1044B00225A8002F019
:100CA0001FFDFB6818461037BD4680BDAC0E002006
:100CB00080B485B000AF786039607B68002B33DB8F
:100CC0007B68072B30DC3B68002B02D03B68012B94
:100CD0002AD1184B1B68FB60FB68BB6001227B6854
:100CE00002FA03F3DB43BA681340BB603A687B68DF
:100CF00002FA03F3BA681343BB60FA68B9680D4B94
:100D0000BFF35F8F53E8000F904204D143E8001C0B
:100D1000BCF1000FF6D1BFF35F8F14BF0023012396
:100D2000002B00D000E0D4E71437BD465DF8047B0B
:100D3000704700BF0000002080B588B000AF786029
:100D400000237B8278680521FFF7C2F903467B8286
:100D50007B6807337B610023FB6100237B830FE00B
:100D600078690221FFF7B4F90346FB60FA69FB6872
:100D70001344FB617B6904337B617B8B01337B8391
:100D80007A8B7B8A9A42EBD3FB699AB20E4BBFF304
:100D90005F8FD3E85F0F1044C3E8510F0029F8D1EB
:100DA000BFF35F8FFA69094BBFF35F8F53E8000F02
:100DB000104443E800010029F8D1BFF35F8F0023FE
:100DC00018462037BD4680BDDC0E0020E80E00200E
:100DD00080B485B000AF78600123FB607B68002B96
:100DE00010DB7B68072B0DDC01227B6802FA03F322
:100DF0001A46084B1B681340002B0CBF002301232D
:100E0000DBB2FB60FB6818461437BD465DF8047B17
:100E1000704700BF0000002080B584B000AF78604C
:100E200078680021FFF76EF90346FB6078680421BB
:100E3000FFF768F90346BB60BB6813F1390F03D1B4
:100E4000F8680121FFF734FF1037BD4680BD00BFB1
:100E500080B582B000AF03463960FB80054BFA884D
:100E60001A80386800210022FFF7ECF90837BD46E8
:100E700080BD00BFAC0E002080B584B000AFF8602C
:100E8000B9607A60054B0122DA86F868B9687A6839
:100E9000FFF7D8F91037BD4680BD00BFAC0E00206B
:100EA00080B584B000AF396013460246FA807B718A
:100EB0003B680533FB60FB685A1CFA6001221A701C
:100EC000FB88F8681946FFF7E7F8F860FB685A1CDA
:100ED000FA607A791A707B799BB204339BB23868D6
:100EE000194602F097FC002318461037BD4680BD16
:100EF00080B586B000AFB9600146F973BA81FB8056
:100F0000BB6805337B617B695A1C7A6102221A70C7
:100F10007B695A1C7A61FA7B1A707B695A1C7A6168
:100F2000BA89D2B21A70BA89FB8813449AB2BB8CC0
:100F300013449BB278691946FFF7AEF87861BA8915
:100F4000FB8813449AB2BB8C13449BB205339BB20B
:100F5000B868194602F05EFC002318461837BD46F3
:100F600080BD00BF80B586B000AFB9600146F98191
:100F70007A73FB80BB6805337B617B695A1C7A619D
:100F800002221A707B695A1C7A61FA89D2B21A70ED
:100F90007B695A1C7A617A7B1A707B7B9AB2FB88D8
:100FA00013449BB278691946FFF776F878617B7B2A
:100FB0009AB2FB8813449BB205339BB2B8681946BA
:100FC00002F028FC00BF1837BD4680BD80B588B050
:100FD00000AFB9607A600246FA73BB81BB68053323
:100FE000BB61BB6805337B617B695A1C7A61032254
:100FF0001A707B695A1C7A61FA7B1A70BB890233BA
:101000009BB278691946FFF747F87861BB89B3F559
:101010007A7F1BD8BB8978691946FFF73DF8BB89F1
:1010200078691946FFF738F87861BB6803F10B025D
:10103000BB89104679681A460BF000F8BB89063365
:101040009BB2B868194602F0E5FB56E0BA892C4B12
:10105000A3FB02139B09FB83FB8B5B009AB2BB894A
:1010600013449BB202339BB278691946FFF714F818
:1010700078694FF47A71FFF70FF87861BB680B332A
:10108000184679684FF47A720AF0D8FFBB89A3F545
:101090007A73BB817B6803F57A737B60B86840F232
:1010A000EE3102F0B7FB25E0BB89B3F57A7F04D8B7
:1010B000BB89FB830023BB8106E04FF47A73FB837B
:1010C000BA89FB8BD31ABB81BB69FA8B1A80BB69C7
:1010D0009A1CFB8B104679681A460AF0AFFFFB8B0F
:1010E0007A6813447B60FB8B02339BB2B869194664
:1010F00002F090FBBB89002BD6D12037BD4680BDC6
:10110000D34D621090B589B000AFF860B9607A60D5
:101110003B60FF23FB752F4B9B68BB61BB690933A9
:10112000FB6100240AE0FB695A1CFA6122B2F968EB
:101130000A4412781A70A3B201339CB223B2032B73
:10114000F1DD00240AE0FB695A1CFA6122B2B96899
:101150000A4412781A70A3B201339CB223B2032B53
:10116000F1DD00240AE0FB695A1CFA6122B27968B9
:101170000A4412781A70A3B201339CB223B2032B33
:10118000F1DDF8690021FEF75FFFF86100240AE055
:10119000FB695A1CFA6122B239680A4412781A7043
:1011A000A3B201339CB223B2032BF1DD42F2010062
:1011B000B9691422FFF774FE07F1170342F2010028
:1011C0001946FFF745FEFB7D5BB218462437BD4646
:1011D00090BD00BFAC0E002080B588B000AFF860B5
:1011E000B9607A603B60FF23FB75304B9B68FB6105
:1011F000FB690933BB61FB681B68002B06D0FB68E9
:101200001B68092B02D8FB680A221A60BB681B689E
:10121000002B06D0BB681B68092B02D8BB680A22CA
:101220001A607B681B68002B06D07B681B68092B43
:1012300002D87B680A221A603B681B68002B06D024
:101240003B681B68092B02D83B680A221A60FB68BE
:101250001B68B8691946FEF7F7FEB861BB681B68E2
:10126000B8691946FEF7F0FEB8617B681B68B8697B
:101270001946FEF7E9FEB8613B681B68B869194674
:10128000FEF7E2FEB86142F20900F9691422FFF7A5
:1012900007FE07F1170342F209001946FFF7D8FDD0
:1012A000FB7D5BB218462037BD4680BDAC0E0020EA
:1012B00080B584B000AF7860084B9B68FB6042F259
:1012C0000500F9680022FFF7EBFD42F2050079689E
:1012D000FFF7BEFD1037BD4680BD00BFAC0E00203D
:1012E00080B588B000AFF860B9607A603B60FF23DA
:1012F000FB75174B9B68FB61FB690933BB61B869E0
:10130000F968FEF7A1FEB861B869B968FEF79CFEFE
:10131000B861B8697968FEF797FEB86140F20120BC
:10132000F9690C22FFF7BCFD07F1170340F2012019
:101330001946FFF78DFD07F11003386800211A46A2
:10134000FFF79AFD3B6918462037BD4680BD00BFB8
:10135000AC0E002080B588B000AFF860B9607A604C
:101360003B604FF0FF337B61194B9B68FB61FB696E
:101370000A33BB61B869F968FEF766FEB861B869FF
:101380000C21FEF761FEB861B869B968FEF75CFE32
:10139000B861B8697968FEF757FEB861FB691A331E
:1013A00018463968BA680AF049FEBB689BB29020BB
:1013B000F9691022FFF7D6FD07F1140340F202206D
:1013C0001946FFF745FD7B6918462037BD4680BDAD
:1013D000AC0E002080B586B000AF78600D4B9B68E6
:1013E0007B6140F2072079690022FFF759FD07F180
:1013F0000C0340F207201946FFF72AFDFA7B7B68B1
:101400001A707B6801333A7C1A703B7B1846183798
:10141000BD4680BDAC0E002080B586B000AF7860C0
:101420003960114B9B687B617B6909333B6138698B
:101430007968FEF709FE386138693968FEF704FEFD
:10144000386140F2032079690822FFF729FD07F18E
:101450000F0340F203201946FFF7FAFCFB7B184606
:101460001837BD4680BD00BFAC0E002080B485B0EB
:1014700000AF786039600023FB810AE0FB897A685D
:101480001344FA8939680A4412781A70FB890133C7
:10149000FB81FB890F2BF1D90123FB815EE1FB89E5
:1014A0001B01043B7A6813441B78BB81FB891B0139
:1014B0007A681344FA891201033A79680A44127867
:1014C000AB49895CFA89013A1201786802441278C2
:1014D0004A40D1B2FA89A748825C4A40D2B21A7017
:1014E000FB891B0101337A681344FA891201023A1D
:1014F00079680A4412789E49895CFA89013A120196
:1015000001327868024412784A40D2B21A70FB89DC
:101510001B0102337A681344FA891201013A79688F
:101520000A4412789249895CFA89013A120102321E
:101530007868024412784A40D2B21A70FB891B01C3
:1015400003337A681344BA898949895CFA89013A74
:10155000120103327868024412784A40D2B21A70FB
:10156000FB891B0104337A681344FA89013A12019A
:10157000043279680A441178FA89120178680244C1
:1015800012784A40D2B21A70FB891B0105337A687F
:101590001344FA89013A1201053279680A44117834
:1015A000FA89120101327868024412784A40D2B2B4
:1015B0001A70FB891B0106337A681344FA89013AD1
:1015C0001201063279680A441178FA89120102324E
:1015D0007868024412784A40D2B21A70FB891B0123
:1015E00007337A681344FA89013A1201073279689D
:1015F0000A441178FA891201033278680244127899
:101600004A40D2B21A70FB891B0108337A6813442E
:10161000FA89013A1201083279680A441178FA8984
:10162000120104327868024412784A40D2B21A7029
:10163000FB891B0109337A681344FA89013A1201C4
:10164000093279680A441178FA89120105327868FA
:10165000024412784A40D2B21A70FB891B010A3345
:101660007A681344FA89013A12010A3279680A4405
:101670001178FA89120106327868024412784A40D9
:10168000D2B21A70FB891B010B337A681344FA89B2
:10169000013A12010B3279680A441178FA89120171
:1016A00007327868024412784A40D2B21A70FB8935
:1016B0001B010C337A681344FA89013A12010C3287
:1016C00079680A441178FA8912010832786802446C
:1016D00012784A40D2B21A70FB891B010D337A6826
:1016E0001344FA89013A12010D3279680A441178DB
:1016F000FA89120109327868024412784A40D2B25B
:101700001A70FB891B010E337A681344FA89013A77
:1017100012010E3279680A441178FA8912010A32EC
:101720007868024412784A40D2B21A70FB891B01D1
:101730000F337A681344FA89013A12010F3279683B
:101740000A441178FA8912010B327868024412783F
:101750004A40D2B21A70FB890133FB81FB890A2B04
:101760007FF69DAE1437BD465DF8047B704700BF21
:101770002CE501082CE7010880B483B000AF0346D4
:10178000FB71FB795BB2002B07DAFB795B00FB7125
:10179000FB7983F01B03DBB202E0FB795B00DBB279
:1017A00018460C37BD465DF8047B704780B584B0A1
:1017B00000AF786039600923FB737B681A783B6857
:1017C000A0331B785340DAB27B681A707B68013310
:1017D0007A68013211783A68A13212784A40D2B25E
:1017E0001A707B6802337A68023211783A68A23242
:1017F00012784A40D2B21A707B6803337A68033297
:1018000011783A68A33212784A40D2B21A707B68D3
:1018100004337A68043211783A68A43212784A4064
:10182000D2B21A707B6805337A68053211783A684B
:10183000A53212784A40D2B21A707B6806337A68B1
:10184000063211783A68A63212784A40D2B21A703B
:101850007B6807337A68073211783A68A7321278C2
:101860004A40D2B21A707B6808337A68083211781D
:101870003A68A83212784A40D2B21A707B680933AB
:101880007A68093211783A68A93212784A40D2B29D
:101890001A707B680A337A680A3211783A68AA3279
:1018A00012784A40D2B21A707B680B337A680B32D6
:1018B00011783A68AB3212784A40D2B21A707B681B
:1018C0000C337A680C3211783A68AC3212784A409C
:1018D000D2B21A707B680D337A680D3211783A688B
:1018E000AD3212784A40D2B21A707B680E337A68F1
:1018F0000E3211783A68AE3212784A40D2B21A707B
:101900007B680F337A680F3211783A68AF321278F9
:101910004A40D2B21A707B681B78894AD25C97F928
:101920000F301B0139680B441B785340DAB27B68D7
:101930001A707B6804337A68043212788049895CB3
:1019400097F90F20120104323868024412784A4095
:10195000D2B21A707B6808337A68083212787849F4
:10196000895C97F90F201201083238680244127816
:101970004A40D2B21A707B680C337A680C32127803
:101980006F49895C97F90F2012010C3238680244C4
:1019900012784A40D2B21A707B680D331B78684ABD
:1019A000D25C97F90F301B01013339680B441B7867
:1019B0005340BB737B680D337A68093212786049F3
:1019C000895C97F90F2012010D32386802441278B1
:1019D0004A40D2B21A707B6809337A6805321278AD
:1019E0005749895C97F90F2012010932386802447F
:1019F00012784A40D2B21A707B6805337A68013295
:101A000012784F49895C97F90F2012010532386826
:101A1000024412784A40D2B21A707B680133BA7B12
:101A20001A707B6802331B78454AD25C97F90F30F5
:101A30001B010A3339680B441B785340BB737B6826
:101A400006331B783E4AD25C97F90F301B010E33E8
:101A500039680B441B7853407B737B6802337A6888
:101A60000A3212783649895C97F90F201201023246
:101A70003868024412784A40D2B21A707B68063342
:101A80007A680E3212782E49895C97F90F2012017C
:101A900006323868024412784A40D2B21A707B6823
:101AA0000A33BA7B1A707B680E337A7B1A707B68B4
:101AB00003331B78224AD25C97F90F301B010F3396
:101AC00039680B441B785340BB737B6803337A68D7
